{
  "contractName": "Election",
  "abi": [
    {
      "inputs": [],
      "stateMutability": "nonpayable",
      "type": "constructor"
    },
    {
      "anonymous": false,
      "inputs": [
        {
          "indexed": true,
          "internalType": "uint256",
          "name": "_candidateId",
          "type": "uint256"
        }
      ],
      "name": "votedEvent",
      "type": "event"
    },
    {
      "inputs": [
        {
          "internalType": "uint256",
          "name": "",
          "type": "uint256"
        }
      ],
      "name": "candidates",
      "outputs": [
        {
          "internalType": "uint256",
          "name": "id",
          "type": "uint256"
        },
        {
          "internalType": "string",
          "name": "name",
          "type": "string"
        },
        {
          "internalType": "uint256",
          "name": "voteCount",
          "type": "uint256"
        }
      ],
      "stateMutability": "view",
      "type": "function",
      "constant": true
    },
    {
      "inputs": [],
      "name": "candidatesCount",
      "outputs": [
        {
          "internalType": "uint256",
          "name": "",
          "type": "uint256"
        }
      ],
      "stateMutability": "view",
      "type": "function",
      "constant": true
    },
    {
      "inputs": [],
      "name": "name",
      "outputs": [
        {
          "internalType": "string",
          "name": "",
          "type": "string"
        }
      ],
      "stateMutability": "view",
      "type": "function",
      "constant": true
    },
    {
      "inputs": [
        {
          "internalType": "address",
          "name": "",
          "type": "address"
        }
      ],
      "name": "voters",
      "outputs": [
        {
          "internalType": "bool",
          "name": "",
          "type": "bool"
        }
      ],
      "stateMutability": "view",
      "type": "function",
      "constant": true
    },
    {
      "inputs": [
        {
          "internalType": "uint256",
          "name": "_candidateId",
          "type": "uint256"
        }
      ],
      "name": "vote",
      "outputs": [],
      "stateMutability": "nonpayable",
      "type": "function"
    }
  ],
  "bytecode": "0x60806040526040518060400160405280600881526020017f456c656374696f6e0000000000000000000000000000000000000000000000008152506000908051906020019062000051929190620001a2565b503480156200005f57600080fd5b50620000a66040518060400160405280601381526020017f4e6172656e647261204d6f6469202d20424a50000000000000000000000000008152506200011c60201b60201c565b620000ec6040518060400160405280601781526020017f526168756c2047616e646869202d20436f6e67726573730000000000000000008152506200011c60201b60201c565b6200011660405180606001604052806021815260200162000a3e602191396200011c60201b60201c565b6200033e565b60036000815480929190620001319062000292565b919050555060405180606001604052806003548152602001828152602001600081525060026000600354815260200190815260200160002060008201518160000155602082015181600101908051906020019062000191929190620001a2565b506040820151816002015590505050565b828054620001b0906200025c565b90600052602060002090601f016020900481019282620001d4576000855562000220565b82601f10620001ef57805160ff191683800117855562000220565b8280016001018555821562000220579182015b828111156200021f57825182559160200191906001019062000202565b5b5090506200022f919062000233565b5090565b5b808211156200024e57600081600090555060010162000234565b5090565b6000819050919050565b600060028204905060018216806200027557607f821691505b602082108114156200028c576200028b6200030f565b5b50919050565b60006200029f8262000252565b91507fffffffffffffffffffffffffffffffffffffffffffffffffffffffffffffffff821415620002d557620002d4620002e0565b5b600182019050919050565b7f4e487b7100000000000000000000000000000000000000000000000000000000600052601160045260246000fd5b7f4e487b7100000000000000000000000000000000000000000000000000000000600052602260045260246000fd5b6106f0806200034e6000396000f3fe608060405234801561001057600080fd5b50600436106100575760003560e01c80630121b93f1461005c57806306fdde03146100785780632d35a8a2146100965780633477ee2e146100b4578063a3ec138d146100e6575b600080fd5b610076600480360381019061007191906103f5565b610116565b005b61008061023c565b60405161008d9190610490565b60405180910390f35b61009e6102ca565b6040516100ab91906104b2565b60405180910390f35b6100ce60048036038101906100c991906103f5565b6102d0565b6040516100dd939291906104cd565b60405180910390f35b61010060048036038101906100fb91906103cc565b610382565b60405161010d9190610475565b60405180910390f35b600160003373ffffffffffffffffffffffffffffffffffffffff1673ffffffffffffffffffffffffffffffffffffffff16815260200190815260200160002060009054906101000a900460ff161561016d57600080fd5b6000811015801561018057506003548111155b61018957600080fd5b60018060003373ffffffffffffffffffffffffffffffffffffffff1673ffffffffffffffffffffffffffffffffffffffff16815260200190815260200160002060006101000a81548160ff021916908315150217905550600260008281526020019081526020016000206002016000815480929190610207906105d4565b9190505550807ffff3c900d938d21d0990d786e819f29b8d05c1ef587b462b939609625b684b1660405160405180910390a250565b60008054610249906105a2565b80601f0160208091040260200160405190810160405280929190818152602001828054610275906105a2565b80156102c25780601f10610297576101008083540402835291602001916102c2565b820191906000526020600020905b8154815290600101906020018083116102a557829003601f168201915b505050505081565b60035481565b60026020528060005260406000206000915090508060000154908060010180546102f9906105a2565b80601f0160208091040260200160405190810160405280929190818152602001828054610325906105a2565b80156103725780601f1061034757610100808354040283529160200191610372565b820191906000526020600020905b81548152906001019060200180831161035557829003601f168201915b5050505050908060020154905083565b60016020528060005260406000206000915054906101000a900460ff1681565b6000813590506103b18161068c565b92915050565b6000813590506103c6816106a3565b92915050565b6000602082840312156103de57600080fd5b60006103ec848285016103a2565b91505092915050565b60006020828403121561040757600080fd5b6000610415848285016103b7565b91505092915050565b61042781610539565b82525050565b60006104388261050b565b6104428185610516565b935061045281856020860161056f565b61045b8161067b565b840191505092915050565b61046f81610565565b82525050565b600060208201905061048a600083018461041e565b92915050565b600060208201905081810360008301526104aa818461042d565b905092915050565b60006020820190506104c76000830184610466565b92915050565b60006060820190506104e26000830186610466565b81810360208301526104f4818561042d565b90506105036040830184610466565b949350505050565b600081519050919050565b600082825260208201905092915050565b600061053282610545565b9050919050565b60008115159050919050565b600073ffffffffffffffffffffffffffffffffffffffff82169050919050565b6000819050919050565b60005b8381101561058d578082015181840152602081019050610572565b8381111561059c576000848401525b50505050565b600060028204905060018216806105ba57607f821691505b602082108114156105ce576105cd61064c565b5b50919050565b60006105df82610565565b91507fffffffffffffffffffffffffffffffffffffffffffffffffffffffffffffffff8214156106125761061161061d565b5b600182019050919050565b7f4e487b7100000000000000000000000000000000000000000000000000000000600052601160045260246000fd5b7f4e487b7100000000000000000000000000000000000000000000000000000000600052602260045260246000fd5b6000601f19601f8301169050919050565b61069581610527565b81146106a057600080fd5b50565b6106ac81610565565b81146106b757600080fd5b5056fea2646970667358221220970efd4c422767a8d89f04eb0a0360873d92a782f0444404633b2bc367af612c64736f6c63430008040033417276696e64204b656a726977616c202d2041616d204161646d69205061727479",
  "immutableReferences": {},
  "source": "// SPDX-License-Identifier: MIT\r\npragma solidity ^0.8.4;\r\n\r\ncontract Election {\r\n\r\n    string public name = \"Election\";\r\n    // Model a Candidate\r\n    struct Candidate {\r\n        uint id;\r\n        string name;\r\n        uint voteCount;\r\n    }\r\n\r\n    // Store accounts that have voted\r\n    mapping(address => bool) public voters;\r\n    // Store Candidates\r\n    // Fetch Candidate\r\n    mapping(uint => Candidate) public candidates;\r\n    // Store Candidates Count\r\n    uint public candidatesCount;\r\n\r\n    // voted event\r\n    event votedEvent (\r\n        uint indexed _candidateId\r\n    );\r\n\r\n    constructor(){\r\n        addCandidate(\"Narendra Modi - BJP\");\r\n        addCandidate(\"Rahul Gandhi - Congress\");\r\n        addCandidate(\"Arvind Kejriwal - Aam Aadmi Party\");\r\n    }\r\n\r\n    function addCandidate (string memory _name) private {\r\n        candidatesCount ++;\r\n        candidates[candidatesCount] = Candidate(candidatesCount, _name, 0);\r\n    }\r\n\r\n    function vote (uint _candidateId) public {\r\n        // require that they haven't voted before\r\n        require(!voters[msg.sender]);\r\n\r\n        // require a valid candidate\r\n        require(_candidateId >= 0 && _candidateId <= candidatesCount);\r\n\r\n        // record that voter has voted\r\n        voters[msg.sender] = true;\r\n\r\n        // update candidate vote Count\r\n        candidates[_candidateId].voteCount ++;\r\n\r\n        // trigger voted event\r\n        emit votedEvent(_candidateId);\r\n    }\r\n}\r\n\r\n// contract Election{\r\n//     //Constructor - We initialize when this to first check everything is properly working.\r\n//     //So just to check we will:-\r\n//     //Store the candidate \r\n//     //Read the candidate\r\n//     // Now we tell the constructor that we are writing a constructor by writing a function name same as the Contract\r\n    \r\n//     //string public candidate;//we have declared a variable of string type and we have declared it public.\r\n//     //Now we have declared public we can easily read the candidate without any reader function.\r\n\r\n//     //Now we will write the actual smart contract for our project.\r\n//     //Model a candidate\r\n//     struct Candidate{\r\n\r\n//         uint id;\r\n//         string name;\r\n//         uint voteCount;\r\n//         }\r\n\r\n\r\n//     //Store a candidate\r\n//     //Fetch Candidate\r\n//     mapping(uint => Candidate) public candidates;\r\n//     //Store candidates count\r\n//     uint public candidatesCount;\r\n    \r\n// constructor() public{\r\n//         addCandidate(\"Candidate 1\");\r\n//         addCandidate(\"Candidate 2\");\r\n//     }\r\n\r\n//     function addCandidate (string memory _name) private {\r\n//         candidatesCount ++;\r\n//         candidates[candidatesCount] = Candidate(candidatesCount, _name, 0);\r\n\r\n//     }\r\n    \r\n    // function vote (uint _candidateId) public {\r\n    //     // require that they haven't voted before\r\n    //     require(!voters[msg.sender]);\r\n\r\n    //     // require a valid candidate\r\n    //     require(_candidateId > 0 && _candidateId <= candidatesCount);\r\n\r\n    //     // record that voter has voted\r\n    //     voters[msg.sender] = true;\r\n\r\n    //     // update candidate vote Count\r\n    //     candidates[_candidateId].voteCount ++;\r\n\r\n    //     // trigger voted event\r\n    //     votedEvent(_candidateId);\r\n    // }\r\n// }\r\n",
  "sourcePath": "C:\\Users\\Hussain\\Desktop\\Election\\src\\contracts\\Election.sol",
  "compiler": {
    "name": "solc",
    "version": "0.8.4+commit.c7e474f2.Emscripten.clang"
  },
  "schemaVersion": "3.4.11",
  "updatedAt": "2023-03-18T08:10:53.735Z",
  "networkType": "ethereum",
  "devdoc": {
    "kind": "dev",
    "methods": {},
    "version": 1
  },
  "userdoc": {
    "kind": "user",
    "methods": {},
    "version": 1
  }
}